:1000000041C050C050C04EC04DC04CC04BC04AC093
:1000100049C048C047C046C045C044C05CC042C09B
:1000200041C040C03FC03EC03DC03CC03BC03AC0E4
:1000300039C038C0E1C2C5C2C7C2C9C2CBC2CDC275
:10004000CFC2D1C2D3C2D5C215C3F9C2FBC2FDC251
:10005000FFC201C303C305C307C309C349C32DC3FB
:100060002FC331C333C335C337C339C33BC33DC3C8
:100070007DC361C363C365C367C369C36BC36DC31A
:100080006FC371C311241FBECFEFD4E0DEBFCDBF5D
:1000900021E0A0E0B1E001C01D92A631B207E1F776
:1000A0003AD73CCBADCF1F920F9200905F000F92DA
:1000B00011248F93CF93DF93CDB7DEB781E0809388
:1000C00010010000DF91CF918F910F9000925F009F
:1000D0000F901F9018951F920F9200905F000F9243
:1000E00011242F933F934F935F936F937F938F933D
:1000F0009F93AF93BF93EF93FF93CF93DF93CDB7CE
:10010000DEB7AA97DEBFCDBF80911001813009F024
:1001100094C089E290E0FC018081882F90E0807497
:10012000992721E0892B09F020E089E290E0FC0189
:1001300080818095881F8827881F822B882309F457
:1001400071C01092100181E08093050180E090E081
:10015000A8E4B3E489879A87AB87BC8720E030E0C6
:100160004AEF54E469857A858B859C854CDADC01FD
:10017000CB018D879E87AF87B88B20E030E040E8C9
:100180005FE36D857E858F859889BCD988232CF4A3
:1001900081E090E09A8B898B3BC020E03FEF4FE7F6
:1001A00057E46D857E858F85988929DA18163CF588
:1001B00020E030E040E251E469857A858B859C85BA
:1001C00022DADC01CB01BC01CD01A0D9DC01CB01DD
:1001D0009A8B898B0FC088EC90E09C8B8B8B8B89E2
:1001E0009C890197F1F79C8B8B8B89899A89019760
:1001F0009A8B898B89899A89892B69F713C06D85B8
:100200007E858F85988982D9DC01CB019A8B898B79
:1002100089899A899E8B8D8B8D899E890197F1F7AB
:100220009E8B8D8B80910001882321F481E0809347
:10023000000105C01092000102C01092000189E285
:1002400090E0FC01808188230CF4ACC08091060111
:1002500091E0882309F090E02091060181E02130AF
:1002600009F080E0892B882389F080910601882F8E
:1002700090E0009719F0019729F027C081E0809362
:10028000060123C01092060100001FC080910601E4
:10029000823021F481E080930C0117C08091060127
:1002A000833021F481E080930B010FC0809106011F
:1002B000843021F481E08093030107C0809106011E
:1002C000853019F481E08093020180E090E0A8EC91
:1002D000B2E489839A83AB83BC8320E030E04AEFA9
:1002E00054E469817A818B819C818DD9DC01CB01B9
:1002F0008F8B988FA98FBA8F20E030E040E85FE3C2
:100300006F89788D898D9A8DFDD888232CF481E0B2
:1003100090E09C8F8B8F3BC020E03FEF4FE757E48E
:100320006F89788D898D9A8D6AD918163CF520E0F1
:1003300030E040E251E469817A818B819C8163D90C
:10034000DC01CB01BC01CD01E1D8DC01CB019C8FEC
:100350008B8F0FC088EC90E09E8F8D8F8D8D9E8D42
:100360000197F1F79E8F8D8F8B8D9C8D01979C8FC0
:100370008B8F8B8D9C8D892B69F7C4C06F89788D8D
:10038000898D9A8DC3D8DC01CB019C8F8B8F8B8D8F
:100390009C8D98A38F8F8F8D98A10197F1F798A3CB
:1003A0008F8FB0C089E290E0FC018081882F90E0BF
:1003B00080749927892B09F0A5C0809106018823B4
:1003C00021F482E08093060131C0809106018230E1
:1003D00021F483E08093060129C0809106018330D7
:1003E00019F41092060122C080910601813021F497
:1003F00084E0809306011AC080910601843021F4C4
:1004000085E08093060112C080910601853071F469
:1004100081E08093060180911401882321F481E01A
:100420008093150103C082E08093150180E090E085
:10043000A8ECB2E48D839E83AF83B88720E030E0E0
:100440004AEF54E46D817E818F819885DCD8DC0190
:10045000CB0189A39AA3ABA3BCA320E030E040E882
:100460005FE369A17AA18BA19CA14CD888232CF4CD
:1004700081E090E09EA38DA33BC020E03FEF4FE7DB
:1004800057E469A17AA18BA19CA1B9D818163CF5B3
:1004900020E030E040E251E46D817E818F819885DB
:1004A000B2D8DC01CB01BC01CD0130D8DC01CB01DD
:1004B0009EA38DA30FC088EC90E098A78FA38FA177
:1004C00098A50197F1F798A78FA38DA19EA10197F9
:1004D0009EA38DA38DA19EA1892B69F713C069A14D
:1004E0007AA18BA19CA112D8DC01CB019EA38DA384
:1004F0008DA19EA19AA789A789A59AA50197F1F731
:100500009AA789A70000AA960FB6F894DEBF0FBE7F
:10051000CDBFDF91CF91FF91EF91BF91AF919F91AF
:100520008F917F916F915F914F913F912F910F909C
:1005300000925F000F901F901895CF93DF931F924A
:10054000CDB7DEB789838981882F90E0823091050D
:1005500079F0833091051CF4019739F012C0833093
:10056000910549F0049751F00CC080E46ED709C0A2
:1005700082E46BD706C086E468D703C08EE465D7F3
:10058000000000000F90DF91CF910895CF93DF938B
:100590001F92CDB7DEB789838981882F90E0092E1D
:1005A000000CAA0BBB0B40E050E029E030E0841BBC
:1005B000950B2817390718F1865E9F4F8F939F93ED
:1005C00008958FEC42D71BC088EA3FD718C089E84E
:1005D0003CD715C083EC39D712C081E936D70FC09C
:1005E00080E933D70CC08FE830D709C080E82DD719
:1005F00006C081E82AD703C084E827D7000000009E
:100600000F90DF91CF910895CF93DF931F92CDB7D5
:10061000DEB789838981882F90E0092E000CAA0B10
:10062000BB0B40E050E029E030E0841B950B28171D
:10063000390718F18C5D9F4F8F939F9308958FEC2E
:1006400004D71BC081EA01D718C089E8FED615C0BF
:100650008CECFBD612C088E9F8D60FC080E9F5D63D
:100660000CC08FE8F2D609C080E8EFD606C088E853
:10067000ECD603C082E8E9D6000000000F90DF91BD
:10068000CF910895CF93DF931F92CDB7DEB78983C3
:100690008981882F90E0092E000CAA0BBB0B40E04B
:1006A00050E029E030E0841B950B2817390718F13A
:1006B000825D9F4F8F939F9308958FE9C6D61BC08D
:1006C00081EAC3D618C089E8C0D615C08CE9BDD66A
:1006D00012C088ECBAD60FC080ECB7D60CC08FE839
:1006E000B4D609C080E8B1D606C088E8AED603C04B
:1006F00082E8ABD6000000000F90DF91CF91089503
:10070000CF93DF931F92CDB7DEB789838981882F7E
:1007100090E0092E000CAA0BBB0B40E050E029E052
:1007200030E0841B950B2817390718F1885C9F4F20
:100730008F939F9308958FE188D61BC081E285D661
:1007400018C089E082D615C08CE17FD612C088E43B
:100750007CD60FC080E479D60CC08FE076D609C075
:1007600080E073D606C088E070D603C082E06DD604
:10077000000000000F90DF91CF910895CF93DF9399
:1007800000D01F92CDB7DEB789836A834B833CD6F6
:100790008981D3DE8B81813019F48A81F7DE0BC029
:1007A0008B81823019F48A812FDF05C08B818330E1
:1007B00011F48A8167DF3CD600000F900F900F90F4
:1007C000DF91CF910895CF93DF9300D0CDB7DEB7FF
:1007D00089836A8319D68981B0DE809114018130C2
:1007E00019F48A818DDF02C08A814CDF21D6000096
:1007F0000F900F90DF91CF910895CF93DF931F92C9
:10080000CDB7DEB7898300D6898197DE8FEF1DD6FD
:100810000FD600000F90DF91CF910895CF93DF9313
:10082000CDB7DEB7F1D580ED10D682E00ED680913F
:100830000701873130F4809107018F5F7FD405D69F
:1008400003C080E07BD401D6F3D50000DF91CF91C7
:100850000895CF93DF93CDB7DEB7D6D580EDF5D52C
:1008600080E0F3D580E06AD4F0D5809108018B3325
:1008700030F4809108018F5F61D4E7D503C080E038
:100880005DD4E3D5D5D50000DF91CF910895CF9306
:10089000DF93CDB7DEB7B8D580EDD7D589E0D5D514
:1008A00080911101873130F4809111018F5F46D41E
:1008B000CCD503C080E042D4C8D5BAD50000DF91C2
:1008C000CF910895CF93DF93CDB7DEB79DD580ED5F
:1008D000BCD587E0BAD580E031D4B7D5809112017C
:1008E0008B3330F4809112018F5F28D4AED503C0D2
:1008F00080E024D4AAD59CD50000DF91CF91089543
:10090000CF93DF93CDB7DEB72F970FB6F894DEBF46
:100910000FBECDBF60ED8EE0B4D580E090E0A8E4DE
:10092000B3E48A839B83AC83BD8320E030E04AEF4D
:1009300054E46A817B818C819D8165D6DC01CB0189
:100940008E839F83A887B98720E030E040E85FE38B
:100950006E817F8188859985D5D588232CF481E0A7
:1009600090E09B878A873BC020E03FEF4FE757E44A
:100970006E817F818885998542D618163CF520E0E6
:1009800030E040E251E46A817B818C819D813BD6DD
:10099000DC01CB01BC01CD01B9D5DC01CB019B87CA
:1009A0008A870FC088EC90E09D878C878C859D8519
:1009B0000197F1F79D878C878A859B8501979B8797
:1009C0008A878A859B85892B69F713C06E817F8111
:1009D000888599859BD5DC01CB019B878A878A8591
:1009E0009B859F878E878E859F850197F1F79F87CF
:1009F0008E870AD581ED29D56ED589838981882F87
:100A000090E0817099271816190614F483E001C04C
:100A100080E02F960FB6F894DEBF0FBECDBFDF91FA
:100A2000CF910895CF93DF93CDB7DEB7EDD480EDAE
:100A30000CD58FE00AD588EC08D5FAD40000DF91F8
:100A4000CF910895CF93DF93CDB7DEB7DDD480ED9E
:100A5000FCD48EE0FAD48DE1F8D4EAD40000DF9122
:100A6000CF910895CF93DF93CDB7DEB7CDD480ED8E
:100A7000ECD48EE0EAD48CE1E8D4DAD40000DF9143
:100A8000CF910895CF93DF93CDB7DEB78091060164
:100A9000882F90E08230910509F4E3C083309105FE
:100AA00034F4009781F0019709F474C0CEC184300A
:100AB000910509F450C1843091050CF40FC10597DC
:100AC00009F486C1C2C185E290E025E230E0F90177
:100AD00020812160FC0120839091070189E2989F89
:100AE000812D112482958F7024E6829F802D112400
:100AF000F92FF81B8F2F9DEC899F812D112486954E
:100B00008695869541E0682F81E038DE9091070157
:100B10008DEC989F812D1124869586958695880F5A
:100B2000282F220F220F820F292F281B822F41E00E
:100B3000682F82E023DE9091080189E2989F812D41
:100B4000112482958F7024E6829F802D1124E92F35
:100B5000E81B8E2F9DEC899F812D1124869586950B
:100B6000869542E0682F83E009DE909108018DECC4
:100B7000989F812D1124869586958695880F282F1C
:100B8000220F220F820FF92FF81B8F2F682F84E07E
:100B90001ADE5BC185E290E025E230E0F9012081B8
:100BA0002E7FFC0120839091110189E2989F812D75
:100BB000112482958F7024E6829F802D1124F92FB5
:100BC000F81B8F2F9DEC899F812D1124869586958A
:100BD000869541E0682F81E0D1DD909111018DEC87
:100BE000989F812D1124869586958695880F282FAC
:100BF000220F220F820F292F281B822F41E0682FFE
:100C000082E0BCDD9091120189E2989F812D112430
:100C100082958F7024E6829F802D1124E92FE81B96
:100C20008E2F9DEC899F812D112486958695869522
:100C300042E0682F83E0A2DD909112018DEC989F35
:100C4000812D1124869586958695880F282F220F51
:100C5000220F820FF92FF81B8F2F682F84E0B3DD4E
:100C6000F4C085E290E025E230E0F90120812E7F9A
:100C7000FC0120839091070189E2989F812D112426
:100C800082958F7024E6829F802D1124F92FF81B06
:100C90008F2F9DEC899F812D1124869586958695B1
:100CA00041E0682F81E06ADD909107018DEC989F0B
:100CB000812D1124869586958695880F282F220FE1
:100CC000220F820F292F281B822F41E0682F82E0FC
:100CD00055DD83E092DD84E090DDB7C085E290E0F1
:100CE00025E230E0F90120812E7FFC01208381E0A4
:100CF00084DD82E082DD9091080189E2989F812D58
:100D0000112482958F7024E6829F802D1124F92F63
:100D1000F81B8F2F9DEC899F812D11248695869538
:100D2000869542E0682F83E029DD909108018DECE3
:100D3000989F812D1124869586958695880F282F5A
:100D4000220F220F820F292F281B822F43E0682FAA
:100D500084E014DD7AC085E290E025E230E0F9011C
:100D600020812E7FFC0120839091110189E2989FC0
:100D7000812D112482958F7024E6829F802D11246D
:100D8000F92FF81B8F2F9DEC899F812D11248695BB
:100D90008695869541E0682F81E0F0DC9091110105
:100DA0008DEC989F812D1124869586958695880FC8
:100DB000282F220F220F820F292F281B822F41E07C
:100DC000682F82E0DBDC83E018DD84E016DD3DC0C7
:100DD00085E290E025E230E0F90120812E7FFC01E0
:100DE000208381E00ADD82E008DD9091120189E232
:100DF000989F812D112482958F7024E6829F802DEB
:100E00001124F92FF81B8F2F9DEC899F812D112420
:100E100086958695869542E0682F83E0AFDC9091B9
:100E200012018DEC989F812D1124869586958695CB
:100E3000880F282F220F220F820F292F281B822F85
:100E400043E0682F84E09ADC00000000DF91CF913E
:100E50000895CF93DF93CDB7DEB780910C01813039
:100E600021F4DCDC10920C0107C080910B01813071
:100E700019F4EFDC10920B0180910301813021F411
:100E800006DD1092030107C080910201813019F440
:100E900019DD1092020180910501813019F4C2DD43
:100EA0001092050180911501813039F4CBDD81E08C
:100EB000809314011092150113C0809115018230A6
:100EC00031F4D0DD109214011092150109C0809107
:100ED0001501833029F481E08093140110921501EB
:100EE00080910001813051F485E290E025E230E00C
:100EF000F90120812068FC01208309C085E290E08F
:100F000025E230E0F90120812F77FC0120830000E9
:100F1000DF91CF910895CF93DF93CDB7DEB72E97B2
:100F20000FB6F894DEBF0FBECDBF89E690E02AE091
:100F3000FC0120838DE390E02DE330E0F901208176
:100F40002260FC0120838AE290E0FC0110828BE2A7
:100F500090E02FEFFC01208384E290E02FEFFC0172
:100F6000208385E290E025E230E0F90120812E7FA8
:100F7000FC01208385E290E025E230E0F901208148
:100F80002F77FC0120838EE690E02EE630E0F90119
:100F900020812D7FFC0120838EE690E02EE630E05C
:100FA000F90120812B7FFC0120838EE690E02EE664
:100FB00030E0F90120812E7FFC01208386E490E05F
:100FC000FC01108287E490E02FEFFC01208385E391
:100FD00090E025E330E0F90120812D7FFC012083A2
:100FE00085E390E025E330E0F90120812B7FFC01CF
:100FF000208385E390E025E330E0F90120812E7F16
:10100000FC01208384E490E024E430E0F9012081B5
:101010002260FC01208385E490E025E430E0F901C2
:1010200020812560FC0120838EE690E02EE630E0F2
:10103000F90120812260FC012083D9D180E090E079
:10104000A8ECB2E489839A83AB83BC8320E030E0D0
:101050004AEF54E469817A818B819C81D4D2DC018E
:10106000CB018D839E83AF83B88720E030E040E8DA
:101070005FE36D817E818F81988544D288232CF433
:1010800081E090E09A8789873BC020E03FEF4FE7FF
:1010900057E46D817E818F819885B1D218163CF519
:1010A00020E030E040E251E469817A818B819C81CB
:1010B000AAD2DC01CB01BC01CD0128D2DC01CB01DD
:1010C0009A8789870FC088EC90E09C878B878B85F7
:1010D0009C850197F1F79C878B8789859A85019775
:1010E0009A87898789859A85892B69F713C06D81CD
:1010F0007E818F8198850AD2DC01CB019A8789870E
:1011000089859A859E878D878D859E850197F1F7C4
:101110009E878D8789E290E0FC018081882F90E096
:10112000807C9927892B09F450D0EADB8093150144
:1011300090DE789485D0A6DC8CDEFCCFCF93DF9355
:1011400000D0CDB7DEB78A839A818DEC989F812D30
:101150001124869586958695882F90E082959295A4
:10116000907F9827807F9827382F9A818DEC989FC1
:10117000812D1124869586958695880F282F220F1C
:10118000220F820F292F281B822F832B898389818D
:101190000F900F90DF91CF910895CF93DF9300D000
:1011A000CDB7DEB78A838A8182958F70880F982F9A
:1011B000990F990F980F8A818F70890F8983898180
:1011C0000F900F90DF91CF910895CF93DF93CDB71C
:1011D000DEB71AD180ED39D180E037D180E0AEDFC3
:1011E00034D180E0ABDF31D18CE0A8DF2ED185E0B7
:1011F000A5DF2BD18DE0A2DF28D183E09FDF25D1B1
:1012000084E19CDF22D180E099DF1FD180E096DF6E
:101210001CD18FE093DF19D180E817D180E08EDFF9
:1012200014D180E08BDF11D180E088DF0ED18DE119
:101230000CD188E00AD1FCD00000DF91CF91089555
:10124000CF93DF93CDB7DEB72E970FB6F894DEBFFE
:101250000FBECDBF60ED80E014D180E090E0A8E447
:10126000B3E489839A83AB83BC8320E030E04AEF08
:1012700054E469817A818B819C81C5D1DC01CB01E9
:101280008D839E83AF83B88720E030E040E85FE342
:101290006D817E818F81988535D188232CF481E002
:1012A00090E09A8789873BC020E03FEF4FE757E403
:1012B0006D817E818F819885A2D118163CF520E042
:1012C00030E040E251E469817A818B819C819BD13D
:1012D000DC01CB01BC01CD0119D1DC01CB019A8726
:1012E00089870FC088EC90E09C878B878B859C85D5
:1012F0000197F1F79C878B8789859A8501979A8753
:10130000898789859A85892B69F713C06D817E81CC
:101310008F819885FBD0DC01CB019A8789878985ED
:101320009A859E878D878D859E850197F1F79E878B
:101330008D876AD081ED89D0B7D080930A01B4D06F
:1013400080930801B1D080930701AED080930D0146
:10135000ABD080930F01A8D080930101A5D08093DA
:101360000901A2D0809313019FD080931201B3D0C2
:10137000809311015DD080910A010FDF80930A01F3
:10138000809108010ADF809308018091070105DF41
:101390008093070180910D0100DF80930D01809102
:1013A0000F01FBDE80930F0180910101F6DE809337
:1013B000010180910901F1DE8093090180911301FF
:1013C000ECDE8093130180911201E7DE809312011D
:1013D00080911101E2DE8093110100002E960FB67C
:1013E000F894DEBF0FBECDBFDF91CF910895CF93AC
:1013F000DF93CDB7DEB788EB90E020E2FC012083DD
:101400000000DF91CF910895CF93DF93CDB7DEB782
:101410008CEB90E024EAFC01208300008CEB90E050
:10142000FC0180818823D4F70000DF91CF910895DB
:10143000CF93DF93CDB7DEB78CEB90E024E9FC01CE
:1014400020830000DF91CF910895CF93DF931F9207
:10145000CDB7DEB789838BEB90E02981FC01208337
:101460008CEB90E024E8FC01208300008CEB90E002
:10147000FC0180818823D4F700000F90DF91CF9189
:101480000895CF93DF9300D0CDB7DEB789836A8309
:10149000BBDF8A81DADF8981D8DFCADF00000F90E5
:1014A0000F90DF91CF910895CF93DF93CDB7DEB743
:1014B0008CEB90E024ECFC01208300008CEB90E0AE
:1014C000FC0180818823D4F78BEB90E0FC018081C4
:1014D000DF91CF910895CF93DF93CDB7DEB78CEB3B
:1014E00090E024E8FC01208300008CEB90E0FC01FC
:1014F00080818823D4F78BEB90E0FC018081DF9121
:10150000CF9108952FD008F481E0089557D088F046
:101510009F5790F0B92F9927B751A0F0D1F0660FDF
:10152000771F881F991F1AF0BA95C9F712C0B130FA
:1015300081F05ED0B1E008955BC0672F782F8827D7
:10154000B85F39F0B93FCCF3869577956795B39539
:10155000D9F73EF490958095709561957F4F8F4FA8
:101560009F4F0895990F0008550FAA0BE0E8FEEF72
:1015700016161706E807F907C0F012161306E40757
:10158000F50798F0621B730B840B950B39F40A2650
:1015900061F0232B242B252B21F408950A2609F42E
:1015A000A140A6958FEF811D811D089557FD90588C
:1015B000440F551F59F05F3F71F04795880F97FB17
:1015C000991F61F09F3F79F08795089512161306D1
:1015D0001406551FF2CF4695F1DF08C01616170600
:1015E0001806991FF1CF8695710561050894089535
:1015F000E894BB2766277727CB0197F90895B2DFD8
:1016000008F48FEF08950BD078C069D028F06ED021
:1016100018F0952309F05AC05FC01124EACFC6DF45
:10162000A0F3959FD1F3950F50E0551F629FF001F5
:10163000729FBB27F00DB11D639FAA27F00DB11D4E
:10164000AA1F649F6627B00DA11D661F829F2227D7
:10165000B00DA11D621F739FB00DA11D621F839F5E
:10166000A00D611D221F749F3327A00D611D231F34
:10167000849F600D211D822F762F6A2F11249F5782
:1016800050408AF0E1F088234AF0EE0FFF1FBB1FA5
:10169000661F771F881F91505040A9F79E3F510544
:1016A00070F014C0A6CF5F3FECF3983EDCF3869554
:1016B00077956795B795F795E7959F5FC1F7FE2BEF
:1016C000880F911D9695879597F9089597F99F67CB
:1016D00080E870E060E008959FEF80EC08950024BA
:1016E0000A941616170618060906089500240A9487
:1016F00012161306140605060895092E0394000C0D
:1017000011F4882352F0BB0F40F4BF2B11F460FF9B
:1017100004C06F5F7F4F8F4F9F4F0895F894FFCFA6
:00000001FF
